:0300000002137870
:0C137800787FE4F6D8FD75811D020EF9A7
:1009DB00302E39364F4C4544003A36342A313238B2
:1009EB003A0041424344454647483A00313233349A
:1009FB00353637383A00060AFE0AC600E000F0002A
:100A0B00F80000FE7DBBC7EFEFEFEFEFEFEFC7BBDB
:100A1B007DFE00000000080CFEFE0C082060FEFEB0
:100A2B00602000007848FE82BABA82BABA82BABA9B
:100A3B0082BABA82FE000000000000000000000035
:100A4B00000000E0E1E101010101010101010101EF
:100A5B000100000000000000C0C0C000000000E06A
:100A6B00E00000C0C0C0C0C0C0C0C0C0C0C0C0C0DB
:100A7B00C040000000000000F0F0F03030303030AB
:100A8B00303030FFFFFF3030303030303030F0F06E
:100A9B00F000000000000000FFFFFF00000000FF5F
:100AAB00FF00000000030F3EF8F0C0E0F03C1F0F0A
:100ABB000300000000000000FFFFFFC0C0C0C0C06B
:100ACB00C0C0C0FFFFFFC0C0C0C0C0C0C0C0FFFFE0
:100ADB00FF000000000000008787878080808087F0
:100AEB00878080BCFEE6C683838381838387868E63
:100AFB008E8C1C00000000000303030000000000AC
:100B0B00000000FFFFFF00000000000000000303D7
:100B1B0003000000000000000101010101013D7D07
:100B2B00716101010101010101E1F9791901010172
:100B3B0001010000000000000000808080808080A8
:100B4B008080808787878080808080808080800005
:100B5B00000000000000030303030303030303036C
:100B6B00030303030303030303030303030303034A
:100B7B0003030303000000000000FFFFFFD9D9D9D6
:100B8B00D9D9D9D9D9D9D9D9D9D9D9D9FFFFFF0031
:100B9B00000000000000000018181818181818188A
:100BAB0018181818FFFFFF18181818181818181805
:100BBB001818180000001818181818D8D8D8D8D832
:100BCB00D8D8D8DEDEDED8D8D8D8D8D8D8D8181808
:100BDB00181818000000000000000000FFFFFF3392
:100BEB0033333333333333333333333333FFFF0065
:100BFB0000000000000000000000000F8FC8C8C8F4
:100C0B0008080808F8F808080808E8C8CF8F80001B
:100C1B00000000000000000000000000FFFFFF6666
:100C2B0066666666666666666666666666FFFF008D
:100C3B00000000000000000006060707030101008A
:100C4B00001C1C0C0F0F0000000000010103030728
:100C5B000F0000000000000E0E0E0E0E0F0F0F0EF9
:100C6B000E0E0E0E0E0E0E0E0E0E0E0E0E0F0F0E97
:100C7B000E0E0E0E000000FEFEFE06060606C6C693
:100C8B00C6C6C6C6C6C6C6C6C6C6C606060606FEC1
:100C9B00FEFE0000000000000000FEFEC6C6C6C639
:100CAB00C6C6C6C6C6C6C6C6C6C6C6C6C6C6C6FEA1
:100CBB00FE000000000000FFFFFF001818181818B6
:100CCB00F8F8F8181818F8F818181818180000FF82
:100CDB00FFFF0000000000000000FFFF0000C0C08D
:100CEB00C0C0C0FEFEFEC0C0C0C0C0FEFEFEC0C085
:100CFB00C0C0C000000000FFFFFF000040E0F07C20
:100D0B003F0F010000007FFFE0E0E0F0783000FFD4
:100D1B00FFFF00000000000080F8FF3F00181818CC
:100D2B00181818FFFF1F1818181818FFFFFF1818AE
:100D3B00181818180000003F3F3F0C0C0C0C0C0C43
:100D4B000C0C0C0C0C0C0C0C0C0C0C0C0C0C0C3FA5
:100D5B003F3F00000000000E0F07010000000030B5
:100D6B00381C0F07030000000000003F3F3F00004E
:100D7B000000000000000048485C48C8485C484838
:100D8B00000000F0949890F0909894F00000000010
:100D9B000000000000000000000000000000000048
:100DAB00000000C0201010101020C00000C0201048
:100DBB0010101020C0000024150E04FF040E152483
:100DCB0000000017141414FF141414170000000073
:100DDB000000000000000000000000000000000008
:100DEB000000001F2040404050205F80001F20402B
:060DFB00404050205F8023
:100EF900120E01121282750820121282E4FBFD7F84
:100F09000612113C7B01E4FD7F1612113C7B02E4C1
:100F1900FD7F2812113C7B027D027F0612113C7B6A
:100F2900037D027F1612113C7B047D027F2812117A
:100F39003C7BFF7A0979DB7D04E4FF1212177BFF02
:100F49007A0979E47D06E4FF1212177BFF7A0979A1
:100F5900ED7D08E4FF1212177BFF7A0979F77D0A04
:100F6900E4FF1212177BFF7A0979ED7D0CE4FF1279
:100F790012177BFF7A0979F77D0EE4FF1212177FAA
:100F8900E87E031212F2121282750C10750DFF75AC
:100F99000E0A750F017B40E4FDFF1211AE7FE87E5A
:070FA900031212F2020F0215
:100003000000000000000000002F000000000700B7
:10001300070000147F147F1400242A7F2A12006231
:1000230064081323003649552250000005030000DD
:1000330000001C224100000041221C000014083E65
:1000430008140008083E0808000000A0600000082B
:10005300080808080000606000000020100804027F
:10006300003E5149453E0000427F4000004261513D
:100073004946002141454B31001814127F100027D7
:1000830045454539003C4A4949300001710905039A
:1000930000364949493600064949291E00003636CB
:1000A300000000005636000000081422410000142E
:1000B300141414140000412214080002015109060B
:1000C30000324959513E007C1211127C007F49498C
:1000D3004936003E41414122007F4141221C007FBD
:1000E30049494941007F09090901003E4149497ACB
:1000F300007F0808087F0000417F41000020404145
:100103003F01007F08142241007F40404040007FB0
:10011300020C027F007F0408107F003E4141413EF4
:10012300007F09090906003E4151215E007F09193C
:1001330029460046494949310001017F0101003F39
:100143004040403F001F2040201F003F4038403FB9
:10015300006314081463000708700807006151491D
:10016300454300007F41410000552A552A550000B0
:1001730041417F000004020102040040404040402E
:10018300000001020400002054545478007F4844C6
:10019300443800384444442000384444487F0038FD
:1001A3005454541800087E0901020018A4A4A47C26
:1001B300007F080404780000447D400000408084F0
:1001C3007D00007F102844000000417F4000007C38
:1001D30004180478007C0804047800384444443844
:1001E30000FC242424180018242418FC007C080490
:1001F300040800485454542000043F444020003C69
:100203004040207C001C2040201C003C4030403CEF
:10021300004428102844001CA0A0A07C004464547F
:100223004C441414141414140000000000000000C3
:100233000000000000000000000000F800000000C3
:10024300000000333000000000100C06100C060004
:10025300000000000000000040C07840C07840006B
:10026300043F04043F040400007088FC08300000CD
:10027300001820FF211E0000F008F000E018000025
:1002830000211C031E211E0000F0088870000000DE
:100293001E2123241927211010160E000000000030
:1002A3000000000000000000000000E0180402004D
:1002B300000000071820400000020418E0000000BE
:1002C3000040201807000000404080F080404000BC
:1002D3000202010F01020200000000F00000000012
:1002E3000101011F010101000000000000000000E6
:1002F30080B070000000000000000000000000005B
:1003030000010101010101010000000000000000E3
:10031300003030000000000000000000806018047E
:10032300006018060100000000E010080810E0005B
:10033300000F102020100F00001010F80000000024
:100343000020203F2020000000700808088870006B
:1003530000302824222130000030088888483000EB
:100363000018202020110E000000C02010F800000B
:1003730000070424243F240000F8088888080800A4
:100383000019212020110E0000E0108888180000B9
:10039300000F112020110E0000380808C83808008B
:1003A3000000003F0000000000708808088870000B
:1003B300001C222121221C0000E010080810E0008C
:1003C3000000312222110F00000000C0C000000015
:1003D300000000303000000000000080000000003A
:1003E3000000806000000000000080402010080032
:1003F30000010204081020004040404040404000FB
:1004030004040404040404000008102040800000D5
:100413000020100804020100007048080808F000DA
:100423000000003036010000C030C828E810E000AA
:100433000718272423140B000000C038E000000035
:10044300203C23020227382008F88888887000009F
:10045300203F202020110E00C03008080808380073
:10046300071820202010080008F808080810E000EA
:10047300203F202020100F0008F88888E80810008B
:10048300203F20202320180008F88888E80810005F
:10049300203F200003000000C03008080838000097
:1004A30007182020221E020008F808000008F80898
:1004B300203F210101213F20000808F8080800001F
:1004C3000020203F2020000000000808F808080052
:1004D300C08080807F00000008F888C028180800CA
:1004E300203F20012638200008F808000000000003
:1004F300203F20202020300008F8F800F8F80800FA
:10050300203F003F003F200008F830C00008F808F3
:10051300203F200007183F00E01008080810E00003
:100523000F10202020100F0008F808080808F0001A
:10053300203F210101010000E01008080810E0003D
:100543000F18242438504F0008F8888888887000D2
:10055300203F2000030C3020007088080808380072
:100563000038202121221C00180808F80808180068
:100573000000203F2000000008F808000008F808E9
:10058300001F202020201F000878880000C838089A
:10059300000007380E010000F80800F80008F80012
:1005A300033C0700073C03000818688080681808AC
:1005B30020302C03032C30200838C800C83808002A
:1005C3000000203F2000000010080808C838080079
:1005D3002038262120201800000000FE020202001D
:1005E3000000007F40404000000C30C000000000CD
:1005F300000000010638C00000020202FE000000F5
:10060300004040407F00000000000402020204009A
:1006130000000000000000000000000000000000D7
:1006230080808080808080800002020400000000BF
:1006330000000000000000000000808080800000B7
:100643000019242222223F2008F8008080000000A5
:10065300003F112020110E00000000808080000068
:10066300000E112020201100000000808088F80077
:10067300000E112020103F200000808080800000A9
:10068300001F222222221300008080F0888888180D
:100693000020203F20200000000080808080800018
:1006A300006B94949493600008F8008080800000AD
:1006B300203F210000203F20008098980000000088
:1006C3000020203F202000000000008098980000B8
:1006D30000C08080807F000008F8000080808000D8
:1006E300203F24022D302000000808F800000000FD
:1006F3000020203F202000008080808080808000B8
:10070300203F20003F20003F808000808080000049
:10071300203F210000203F200000808080800000D7
:10072300001F202020201F00808000808000000008
:1007330080FFA12020110E00000000808080800037
:10074300000E112020A0FF80808080008080800028
:1007530020203F2120000100000080808080800055
:100763000033242424241900008080E080800000CA
:100773000000001F20200000808000000080800017
:10078300001F202020103F20808080000080808078
:1007930000010E3008060100808000800080808008
:1007A3000F300C030C300F0000808000808080002D
:1007B3000020312E0E312000808080000080808058
:1007C30080818E7018060100008080808080800008
:1007D3000021302C2221300000000000807C020226
:1007E30000000000003F404000000000FF00000048
:1007F30000000000FF0000000002027C80000000F7
:100803000040403F00000000000601010202040412
:1008130000000000000000000000F010101010FFA6
:1008230010101010F0000000000000000000000095
:10083300000000000000000000000F04040404FF97
:10084300040404040F000000000000000000000086
:1008530000000000000000004040405F5555557502
:100863005555555F40404000000000000000000067
:1008730000000000000000000040200F09498979B2
:100883000909090F204000000000000000000000DB
:10089300000000000000000000FE02424ACA4A4A6B
:1008A300CA4A4A4202FE00000000000000000000A5
:1008B300000000000000000000FF40504C43404097
:1008C3004F50505C40FF000000000000000000009B
:1008D30000000000000000000000F888888888FFFE
:1008E30088888888F80000000000000000000000ED
:1008F300000000000000000000001F080808087F37
:10090300888888889F80F0000000000000000000B5
:10091300000000000000000080828282828282E266
:10092300A2928A86828080000000000000000000FE
:100933000000000000000000000000000040807F75
:1009430000000000000000000000000000000000A4
:1009530000000000000000002424A4FEA3220022C3
:10096300CC0000FF000000000000000000000000B9
:100973000000000000000000080601FF000104045D
:10098300040404FF02020200000000000000000053
:100993000000000000000000101010FF10900888F5
:1009A3008888FF8888880800000000000000000095
:1009B30000000000000000000444827F01808040AA
:1009C300432C102846818000000000000000000036
:0809D30000000000000000001C
:1012F200EF4E60157D087C07ED1DAA0470011C4AA3
:0913020070F6EF1F70EA1E80E78F
:01130B0022BF
:0A138400D291D29000C291C29022D3
:07138E00C291D290D291221E
:0B134C001212B3121357AF041212B3B9
:05135700D290C29022BB
:0712AC00AC071213847F78E8
:1012B300E4FEAD07530580BD8004D2918002C29144
:0C12C300EF25E0FFD290C2900EBE08E6BE
:0112CF0022FC
:0E135C001212AC121357E4FF12134C02138E40
:0E136A001212AC1213577F4012134C02138E56
:1012D0001212E1E4FDFCFFFE1212E17F10E4FDFCBE
:0112E000FE0F
:1012E100AB07AA06ED4C600302136AAF0312135C4D
:0112F10022DA
:10125400A907ED24B0FFE433FEE4FDFC1212E1E93A
:1012640054F0C4540F7E004410FFE4FDFC1212E15C
:0E127400E9540F7E004401FFE4FDFC0212E18C
:101324007F8D1212DDE4FDFC7F14FE1212E1E4FD58
:07133400FC7FAFFE0212E195
:10133B00E4FDFC7F8D1212D7E4FDFC7FAEFE0212A2
:01134B00E1C0
:10128200E4F9E924B0FFE433FEE4FDFC1212D0E4F9
:10129200F5097D017C00E4FFFE1212E10509E50972
:0912A200C3944040ED09B910D9D4
:0112AB002220
:041044008F0F8D106D
:10104800E4F511F9EB24E0F511E50FD3947F40079F
:10105800E4F50F05100510AD10AF0F121254E4F9A6
:1010680075F010E511A429F582E435F0F583E582E1
:10107800242BF582E5833402F583E493FF7E007D1B
:10108800017C001212E109B908D6E51004FDAF0F82
:10109800121254E4F975F010E511A429F582E4352B
:1010A800F0F583E5822433F582E5833402F583E4A1
:1010B80093FF7E007D017C001212E109B908D62257
:04130C008F1DA90583
:101310007F017E00AD0119ED6009AD1D7C00120F4B
:03132000DD80F17C
:0113230022A7
:0810C8008F148D158A168B1799
:1010D000E4F51CF51AE51AC39518505FC3E5189599
:1010E0001A14FD7F0A12130CAC16AD17CFCDCFCE5C
:1010F000CCCE120FEF7C007D0A120FEF8D1BE51C8A
:101100007020E51814FFE51AC39F5016E51B700FF9
:10111000E519C313851AF0A42514FF7B20801375ED
:101120001C01E519C313851AF0A42514FFE51B243F
:0B11300030FBAD15121044051A809A28
:01113B002291
:0A1217008F098D0A8B0B8A0C890DDC
:10122100E4F50EAB0BAA0CA90D850E827583001295
:101231000FB0FB601DAD0AAF0912104474082509F7
:10124100F509D394784007E4F509050A050A050E66
:0212510080D14A
:011253002278
:06113C008F098D0A8B0BE8
:10114200E4F50C121254E4F975F040E50BA4241BEB
:10115200F582E5F03408F583E58229F582E43583EA
:10116200F583E493FF7E007D017C001212E1050C01
:1011720009B910D4E50A04FDAF09121254E4F97555
:10118200F040E50BA4243BF582E5F03408F583E555
:101192008229F582E43583F583E493FF7E007D01A5
:0B11A2007C001212E1050C09B910D40A
:0111AD00221F
:0411AE008F098B0B0F
:1011B200E4F510F511E50C5407700BE50C1313134D
:1011C200541FF513800AE50C131313541F04F5136F
:1011D2008D13E513C3950C503BAD13AF0912125496
:1011E200850912E512C3950B5026AB0DAA0EA90F65
:1011F2000511E511AE107002051014F5828E8312EE
:101202000FB0FF7E007D017C001212E1051280D337
:04121200051380BE82
:0112160022B5
:100E0100C293C294D2927F647E001212F2C2927F88
:100E1100C87E001212F2D292E4FDFC7FAEFE1212E5
:100E2100D0E4FDFC7FB0FE1212E1E4FDFC7FDCFEAC
:100E31001212E1E4FDFCFFFE1212E1E4FDFC7F81F0
:100E4100FE1212E1E4FDFC7FFFFE1212E1E4FDFC63
:100E51007F20FE1212E1E4FDFC7FA0FE1212E1E40C
:100E6100FDFC7FC0FE1212E1E4FDFC7FA4FE121224
:100E7100E1E4FDFC7FA6FE1212E1E4FDFC7FA8FE89
:100E81001212E1E4FDFC7F3FFE1212E1E4FDFC7F62
:100E9100D3FE1212E1E4FDFC7F60FE1212E1E4FDDB
:100EA100FC7FD5FE1212E1E4FDFC7FF0FE1212E19F
:100EB100E4FDFC7FD9FE1212E1E4FDFC7F22FE126B
:100EC10012E1E4FDFC7FDBFE1212E1E4FDFC7F3563
:100ED100FE1212E1E4FDFC7FADFE1212E1E4FDFC25
:100EE1007F80FE1212E1121282E4FDFC7FAFFE123E
:080EF10012E1E4FDFF021254BE
:100FB000BB010CE58229F582E5833AF583E02250F6
:100FC00006E92582F8E622BBFE06E92582F8E22240
:0D0FD000E58229F582E5833AF583E493225A
:100FDD00EF8DF0A4A8F0CF8CF0A428CE8DF0A42E28
:020FED00FE22E2
:100FEF00BC000BBE0029EF8DF084FFADF022E4CCE6
:100FFF00F875F008EF2FFFEE33FEEC33FCEE9DECAF
:10100F00984005FCEE9DFE0FD5F0E9E4CEFD22EDF4
:10101F00F8F5F0EE8420D21CFEADF075F008EF2F3E
:10102F00FFED33FD4007985006D5F0F222C398FD2F
:05103F000FD5F0EA22CC
:00000001FF
