:020000040800F2
:1000000018110020450D0008D1030008D303000893
:10001000D7030008DB030008DF030008000000002E
:10002000000000000000000000000000E3030008E2
:10003000E503000800000000E7030008E9030008EA
:100040005F0D00085F0D00085F0D00085F0D0008E0
:100050005F0D00085F0D00085F0D00085F0D0008D0
:100060005F0D00085F0D00085F0D00085F0D0008C0
:100070005F0D00085F0D00085F0D00085F0D0008B0
:100080005F0D00085F0D00085F0D00085F0D0008A0
:100090005F0D00085F0D00085F0D00085F0D000890
:1000A0005F0D00085F0D00085F0D00085F0D000880
:1000B0005F0D00085F0D00085F0D00085F0D000870
:1000C0005F0D00085F0D00085F0D00085F0D000860
:1000D0005F0D0008B90C00085F0D00085F0D0008F7
:1000E0005F0D00085F0D00085F0D00085F0D000840
:1000F0005F0D00085F0D00085F0D00085F0D000830
:100100005F0D00085F0D00085F0D00085F0D00081F
:100110005F0D00085F0D00085F0D00085F0D00080F
:100120005F0D00085F0D00085F0D00085F0D0008FF
:100130005F0D00085F0D00085F0D00085F0D0008EF
:100140005F0D00085F0D00085F0D00085F0D0008DF
:100150005F0D00085F0D00085F0D00085F0D0008CF
:100160005F0D00085F0D00085F0D00085F0D0008BF
:100170005F0D00085F0D00085F0D00085F0D0008AF
:100180005F0D00085F0D000800F002F800F060F855
:100190000AA090E8000C82448344AAF10107DA45E2
:1001A00001D100F055F8AFF2090EBAE80F0013F0D4
:1001B000010F18BFFB1A43F0010318477822000013
:1001C0009822000010F8013B0A4413F0030408BF12
:1001D00010F8014B1D1108BF10F8015B641E05D01B
:1001E00010F8016B641E01F8016BF9D1002D15D0D8
:1001F00010F8014B03F00C030C2BA1EB04040ABF15
:1002000010F8013BA4EB8314A4EB032405F10103D4
:1002100014F8016B5B1E01F8016BF9D5914238BFF0
:1002200010F8013BD1D3704700230024002500269D
:10023000103A28BF78C1FBD8520728BF30C148BF49
:100240000B6070471FB501F0E3FC1FBD10B510BD7A
:1002500001F0AFFC1146FFF7F5FF00F009F801F0DF
:10026000CDFC03B4FFF7F2FF03BC00F0C5FC0000B7
:1002700008B500244FF4A06000F084FDA82000F031
:1002800039FC4FF4E13000F0C5FC00F0B7F900F0A4
:100290006DFB202400203E49086078E000F03DFA24
:1002A00000221146104600F0F5FA0122002112202A
:1002B00000F0F0FA02220021242000F0EBFA0322E1
:1002C0000021362000F0E6FA04220021482000F048
:1002D000E1FA052200215A2000F0DCFA0622002172
:1002E0006C2000F0D7FA2BA20221002000F0B7FA10
:1002F0002CA20421002000F0B2FA2FA20621002037
:1003000000F0ADFA2EA206213F2000F0A8FA224606
:100310000621302000F021FA601CC4B27E2C00DDE2
:10032000202410200323224606210090672000F09D
:1003300054FA4FF4FA7000F03FFC00F0EEF94FF47D
:10034000FA7000F039FC2048082380220021009038
:10035000084600F0D0FA4FF4FA7000F02DFC1B486C
:100360000823802200210090084600F0C4FA4FF4D0
:10037000FA7000F021FC4FF4FA7000F01DFC044804
:10038000006808B9012000E000200149086085E705
:10039000A4824242302E393627204F4C4544205407
:1003A00045535400303132333435363738394142D1
:1003B000434445460000000041534349493A000088
:1003C000434F44453A000000000000200004002094
:1003D000704700BFFEE700BFFEE700BFFEE700BFBB
:1003E000FEE7704770477047704700000CB500206B
:1003F000019000907648006840F4803074490860AD
:1004000000BF7348006800F4003000900198401C61
:100410000190009818B90198B0F5A04FF1D16C483F
:10042000006800F4003010B10120009001E00020CD
:1004300000900098012846D165484030006840F09F
:1004400080506349403108606248006840F4404091
:10045000604908605E48083000685D4908310860FE
:100460000846006840F4004008600846006840F410
:10047000A05008605848091F0860081F006840F035
:100480008070091F086000BF5148006800F00070CC
:100490000028F9D040F20570504908604C480830F7
:1004A000006820F003004A490831086008460068E7
:1004B00040F00200086000BF45480830006800F0C6
:1004C0000C000828F8D10CBD10B54548006840F470
:1004D0007000434908603E48006840F001003C4914
:1004E000086000203A4908310860394800683D49F1
:1004F0000840374908603C48091D0860081F00682B
:1005000020F48020091F0860002031490C31086068
:10051000FFF76CFF4FF0006031498039086010BD73
:1005200070B500200022022300240221284D083546
:100530002D6805F00C0020B1042806D0082834D11D
:1005400007E02A4D2A4E356033E02A4D284E3560AB
:100550002FE01F4D2D1D2D68C5F380541C4D2D1D02
:100560002D6805F03F0154B1224DB5FBF1F5184E51
:10057000361D3668C6F3881605FB06F209E01B4DEA
:10058000B5FBF1F5124E361D3668C6F3881605FB2D
:1005900006F20F4D2D1D2D68C5F301456D1C6B0036
:1005A000B2FBF3F5124E356003E0104D104E35608E
:1005B00000BF00BF064D08352D68C5F303150E4E6C
:1005C000705D0B4D2D68C540094E356070BD000053
:1005D000003802400070004008544007003C0240D0
:1005E00088ED00E0FFFFF6FE103000240024F40048
:1005F0000008002000127A00040800201CB5012128
:10060000202000F053FF4FF4C060009001208DF8CF
:10061000040000208DF8060003208DF8050001205D
:100620008DF807006946044800F0A2FC4FF4C06151
:10063000014800F019FD1CBD0014024070B50446CD
:100640000E462EB14FF40041FE4800F00DFD04E0CF
:100650004FF40041FB4800F009FD0221F94800F089
:1006600005FD002519E04FF48051F74800F0FEFC2D
:1006700004F0800020B12021F24800F0F5FC03E0F6
:100680002021F04800F0F2FC4FF48051EE4800F0D9
:10069000EBFC6006040E681CC5B2082DE3DB0221EA
:1006A000E84800F0E1FC4FF40041E64800F0DCFCD3
:1006B00070BD70B504460D4605F1B001C8B2002109
:1006C000FFF7BCFFA11CC1F3031141F01000002192
:1006D000FFF7B4FFA11C01F00F000021FFF7AEFFF0
:1006E00070BD10B500218D20FFF7A8FF0021142058
:1006F000FFF7A4FF0021AF20FFF7A0FF10BD10B54A
:1007000000218D20FFF79AFF00211020FFF796FFB0
:100710000021AE20FFF792FF10BD70B5002419E054
:1007200004F1B001C8B20021FFF788FF00210220C8
:10073000FFF784FF00211020FFF780FF002505E070
:1007400001210020FFF77AFF681CC5B2802DF7DB7E
:10075000601CC4B2082CE3DB70BD2DE9F0410746F4
:100760000E46904600250024A8F12000C5B27F2F38
:1007700002DD0027B01CC6B231463846FFF799FFAC
:10078000002408E004EB0511B04A505C0121FFF79A
:1007900055FF601CC4B2082CF4DB701CC1B2384693
:1007A000FFF787FF002409E004EB05110831A74A91
:1007B000505C0121FFF742FF601CC4B2082CF3DB40
:1007C000BDE8F08110B50246012000E050430B0067
:1007D000A1F10104E1B2F9D110BD2DE9FF5F074697
:1007E00091461D460E9E4FF0000A002433E0281B60
:1007F000401EC1B20A20FFF7E5FFB9FBF0F00A2165
:10080000B0FBF1F201FB1208BAF1000F13D1681E20
:10081000A04210DDB8F1000F0BD1B34606EBDB713F
:10082000491001FB0471C8B220220199FFF795FF1E
:100830000FE04FF0010AB34606EBDB71491001FBF4
:100840000471C8B208F13001CAB20199FFF785FFFF
:1008500000BF601CC4B2AC42C9DBBDE8FF9F2DE9FC
:10086000F04104460F46154600260EE0AA5D3946C3
:100870002046FFF772FF04F10800C4B2782C02DDB5
:100880000024B81CC7B2701CC6B2A85D0028EDD108
:10089000BDE8F0812DE9F04180460E46154600275F
:1008A00031464046FFF705FF00240AE0684A02EBA4
:1008B0008511085D0121FFF7C1FE781CC7B2601CDD
:1008C000C4B2102CF2DB701CC1B24046FFF7F1FE3F
:1008D00000240CE06900491C5D4A02EB4111085DEF
:1008E0000121FFF7ABFE781CC7B2601CC4B2102C0C
:1008F000F0DBBDE8F0812DE9F05F06460F4690463B
:100900001C46DDF828A04FF0000BE11704EB5171F5
:10091000C910A4EBC10131B92046E11704EB5171B4
:10092000C1F3C70506E02046E11704EB5171C91079
:10093000491CCDB23D4615E029463046FFF7B9FEC9
:10094000B1460BE059460BF1010B1AF801000121E9
:10095000FFF774FE09F1010000F0FF09C145F1DB6A
:10096000681CC5B2A542E7DBBDE8F09F1CB50121BC
:100970005F2000F09BFD48F22200009001208DF8DE
:10098000040000208DF8060003208DF805000120EA
:100990008DF8070069462B4800F0EAFA4FF48050C2
:1009A000009001208DF8040000208DF8060003203F
:1009B0008DF8050001208DF807006946224800F0F7
:1009C000D7FA0121234800F04FFB642000F0F4F82F
:1009D0000121204800F04AFBC82000F0EDF8012179
:1009E0001C4800F041FB0021AE20FFF727FE00214C
:1009F0000220FFF723FE00211020FFF71FFE002139
:100A00004020FFF71BFE00218120FFF717FE002189
:100A1000FF20FFF713FE0021A120FFF70FFE0021AA
:100A2000C820FFF70BFE0021A620FFF707FE0021DC
:100A3000A820FFF703FE00213F20FFF7FFFD002164
:100A4000D32009E0000C024000180240421E0008BA
:100A50001408002000040240FFF7F0FD00210846C2
:100A6000FFF7ECFD0021D520FFF7E8FD00218020F5
:100A7000FFF7E4FD0021D920FFF7E0FD0021F12080
:100A8000FFF7DCFD0021DA20FFF7D8FD002112205E
:100A9000FFF7D4FD0021DB20FFF7D0FD002140202F
:100AA000FFF7CCFD00212020FFF7C8FD0021022028
:100AB000FFF7C4FD00218D20FFF7C0FD00211420A9
:100AC000FFF7BCFD0021A420FFF7B8FD0021A62000
:100AD000FFF7B4FD0021AF20FFF7B0FD0021AF20EC
:100AE000FFF7ACFDFFF719FE00210846FFF7E1FD17
:100AF0001CBD000010B504466FF0040000F094F92E
:100B0000E11704EB5171C1F3C701394A1170104666
:100B1000007800EB4001C1EBC0104FF6FF7101EA15
:100B2000C0003449088010BD0146314A12784A435A
:100B30004FF0E0235A6100229A611A46126942F08E
:100B400001021A6100BF4FF0E022106900F00102BB
:100B50001AB100F48032002AF5D04FF0E022126979
:100B600022F001024FF0E0231A6100229A617047DF
:100B70000146204A12884A434FF0E0235A6100227E
:100B80009A611A46126942F001021A6100BF4FF0E1
:100B9000E022106900F001021AB100F48032002A4C
:100BA000F5D04FF0E022126922F001024FF0E0236D
:100BB0001A6100229A61704770B504464FF40770BD
:100BC00094FBF0F0C6B24FF4077094FBF0F100FB19
:100BD000114085B205E04FF40770FFF7C9FF701EA2
:100BE000C6B2002EF7D115B12846FFF7C1FF70BD80
:100BF000D4090020D6090020014600BF704700BF7D
:100C00004C4A128802F04002002AF9D0C2B2494B85
:100C10009A80704710B588B004460121084600F05C
:100C200045FC0121102000F09BFC072209214248CD
:100C300000F029FA07220A213F4800F024FA4FF475
:100C4000C060069002208DF81C008DF81D00002069
:100C50008DF81E0001208DF81F0006A9364800F00F
:100C600087F902940020ADF80C00ADF80E00ADF845
:100C70001000ADF814000C20ADF8120002A92D48A8
:100C800000F0CFFD01212B4800F053FE012240F27D
:100C90002551284800F003FF25208DF8040003208B
:100CA0008DF805008DF8060001208DF8070001A8D9
:100CB00000F06DF808B010BD10B540F225511D4888
:100CC00000F028FF10B31B4800F062FEC4B21B48BE
:100CD000008800F40040C8B91848008800F480403B
:100CE00060B10A2C03D000201449088020E013488A
:100CF000008840F400401149088019E00D2C06D10D
:100D00000E48008840F480400C49088010E00B48F1
:100D10000088C0F30D000A490C5408480088401CA4
:100D20000649088008460088C72801DD00200880A1
:100D300010BD00000010014000000240DC0900204E
:100D4000F00900200948804709480047FEE7FEE710
:100D5000FEE7FEE7FEE7FEE7FEE7FEE7FEE7FEE76B
:100D600004480549054A064B70470000C9040008BD
:100D700089010008180B002018110020180D002010
:100D8000180D002032490143324A1160704770B596
:100D9000002100230F22C4781CB32E4C246804F4D5
:100DA000E064C4F5E064C4F30721C1F10404E3B2D4
:100DB0000A4144789C40E1B28478144021430C07F6
:100DC000210E254C05786155047804F01F05012497
:100DD000AC4005786D11AD0005F1E025C5F8004186
:100DE00009E0047804F01F050124AC401B4D06788F
:100DF000761145F8264070BD194A0A400243154B4A
:100E00001B1F1A60704739B1124A121D1268024343
:100E1000104B1B1D1A6006E00E4A121D1268824319
:100E20000C4B1B1D1A607047042808D14FF0E021BD
:100E3000096941F004014FF0E022116107E04FF031
:100E4000E021096921F004014FF0E02211617047AF
:100E50000000FA050CED00E000E400E080E100E0B5
:100E600080FFFF1F10B504469848844208D1012135
:100E7000084600F086FB0021012000F082FB76E0AE
:100E80009348844208D10121022000F07AFB00211E
:100E9000022000F076FB6AE08E48844208D10121EE
:100EA000042000F06EFB0021042000F06AFB5EE0ED
:100EB0008948844208D10121082000F062FB00210A
:100EC000082000F05EFB52E08448844208D10121F2
:100ED000102000F056FB0021102000F052FB46E0ED
:100EE0007F48844208D10121202000F04AFB0021E4
:100EF000202000F046FB3AE07A48844208D10121E4
:100F0000402000F03EFB0021402000F03AFB2EE0A4
:100F10007548844208D10121802000F032FB002175
:100F2000802000F02EFB22E07048844208D101218D
:100F3000801500F026FB0021A01500F022FB16E032
:100F40006B48844208D10121401500F01AFB0021B2
:100F5000601500F016FB0AE06648844207D10121C3
:100F6000001500F00EFB0021201500F00AFB10BD5B
:100F7000F0B50A4600210023002400BF3DE0012512
:100F800005FA01F3156805EA03049C4234D10568AB
:100F90004F000326BE40B543056015794E00B540AD
:100FA0000668354305601579012D02D01579022DAB
:100FB00016D185684F000326BE40B543856055793C
:100FC0004E00B540866835438560456801268E40F1
:100FD000B5434560456896798E40B6B23543456065
:100FE000C5684F000326BE40B543C560D5794E00A5
:100FF000B540C6683543C560491C1029BFD3F0BD54
:101000004FF6FF7101600021017141718171C17161
:10101000704708B54FF480320092009A0A4300925C
:10102000009AC261C161009AC261C2690092C2693C
:10103000009208BD0246002013690B400BB101204D
:1010400000E0002070470146086980B27047024600
:10105000002053690B400BB1012000E000207047D5
:101060000146486980B270470183704741837047E9
:101070000AB1018300E041837047416170474269D2
:101080004A4042617047F0B5002300244D07ED0E41
:1010900002FA05F3CE1000F1200555F826504E0750
:1010A000F70E0F26BE40B543CF1000F1200646F8DC
:1010B0002750CE1000F1200555F8265045EA0304CC
:1010C000CE1000F1200545F82640F0BD000002409A
:1010D0000004024000080240000C024000100240E0
:1010E0000014024000180240001C02400020024090
:1010F0000024024000280240F948006840F0010046
:10110000F74908600020F64908310860F448006893
:10111000F4490840F2490860F348091D0860F348A3
:10112000EF4984310860F0481038091D0860EC4828
:10113000006820F48020EA4908600020E8490C316A
:101140000860E7498C31086070470021E44A921C2E
:10115000117011460870704710B501460022002337
:1011600000204A11012A02D1DD4C236808E0022A3E
:1011700003D1DB4C7034236802E0D94C743423680B
:1011800001F01F02012494401C400CB1012000E03A
:10119000002010BD38B5002000900024002500BFBD
:1011A0003120FFF7D9FF05460098401C00900098B9
:1011B000B0F5A04F01D0002DF2D03120FFF7CCFFC9
:1011C00008B1012400E00024204638BD014600207B
:1011D000C34A106820F0F80040EAC1001060704770
:1011E000C349086070470021BD4A70321170117008
:1011F000012802D004280AD104E00121B84A703243
:10120000117005E00521B64A7032117000E000BF90
:1012100000BF7047B7490860704770B5049C41EA49
:1012200082150126C6EB530645EA0645054345EA05
:101230000465AB4E361D356070BDAD49086670471C
:10124000820142EA0172A64B84331A607047A849B2
:101250008866704710B5830143EA016343EA02736D
:101260009F4C8834236010BDA14908677047A0498E
:10127000C864704702460020994B0833186820F074
:10128000EC6042EA01031843954B0833186070473D
:1012900002460020924B0833186820F0784042EA5A
:1012A000010318438E4B0833186070470146002035
:1012B0008B4A0832106820F0030008431060704722
:1012C00087480830006800F00C0070470146002095
:1012D000834A0832106820F0F0000843106070471D
:1012E000014600207E4A0832106820F4E05008438E
:1012F0001060704701460020794A0832106820F4D7
:10130000604040EAC10010607047F0B50021002243
:101310000024022500260223714F08373F6807F09A
:101320000C0121B1042905D0082937D105E0724FFD
:10133000076036E0714F076033E0694F3F1D3F683B
:10134000C7F38056664F3F1D3F6807F03F036EB1FD
:101350006A4FB7FBF3F7DFF888C10CF1040CDCF837
:1013600000C0CCF3881C07FB0CF40CE0624FB7FB09
:10137000F3F7DFF86CC10CF1040CDCF800C0CCF31F
:10138000881C07FB0CF4564F3F1D3F68C7F301470D
:101390007F1C7D00B4FBF5F7076002E0564F076045
:1013A00000BF00BF4E4F08373F6807F0F001090942
:1013B000534F7A5C0768D7404760494F08373F680A
:1013C00007F4E051890A4E4F7A5C4768D74087603E
:1013D000434F08373F6807F46041490B484F7A5C38
:1013E0004768D740C760F0BD002100F44072B2F5F5
:1013F000407F0AD13A4A0832116821F4F811414A73
:1014000002401143364A08321160354A7032126880
:10141000C0F30B031A43324B70331A6070473549DF
:10142000443908607047334940390860704736498D
:101430000860704701460020294A8C32106820F06D
:101440001F004A1E1043264A8C3210607047014626
:101450000020234A8C32106820F4F8504A1E40EADB
:1014600002201F4A8C3210607047014600201C4A3F
:101470008C32106820F44010084310607047014619
:101480000020174A8C32106820F440000843106096
:10149000704701460020124A8C32106820F4403018
:1014A00008431060704719490860704739B10C4A09
:1014B0003032126802430A4B30331A6006E0084AA1
:1014C000303212688243064B30331A607047F9B1EC
:1014D000034A343212680243014B34331A601CE071
:1014E00000380240FFFFF6EA1030002400300020F0
:1014F00000004742800E47420024F40000127A00A8
:10150000DE090020FFFCFF0F5C014742E01147426B
:101510008F4A126882438E4B1A60704739B18C4AE9
:10152000121D126802438A4B1B1D1A6006E0884A8E
:10153000121D12688243864B1B1D1A60704739B119
:10154000834A0C3212680243814B0C331A6006E066
:101550007F4A0C32126882437D4B0C331A6070470D
:1015600039B17B4A103212680243794B10331A604A
:1015700006E0774A103212688243754B10331A60C6
:10158000704739B1724A243A12680243704B243BC7
:101590001A6006E06E4A243A126882436C4B243B80
:1015A0001A60704739B16A4A203A12680243684BA0
:1015B000203B1A6006E0664A203A12688243644B78
:1015C000203B1A60704739B1614A1C3A12680243E5
:1015D0005F4B1C3B1A6006E05D4A1C3A126882436E
:1015E0005B4B1C3B1A60704739B1594A143A126878
:1015F0000243574B143B1A6006E0554A143A1268EE
:101600008243534B143B1A60704739B1504A103A29
:10161000126802434E4B103B1A6006E04C4A103AE7
:10162000126882434A4B103B1A60704739B1484AEE
:101630001C3212680243464B1C331A6006E0444ACF
:101640001C3212688243424B1C331A60704739B116
:101650003F4A2032126802433D4B20331A6006E0B5
:101660003B4A203212688243394B20331A6070475C
:1016700039B1374A243212680243354B24331A6099
:1016800006E0334A243212688243314B24331A6015
:10169000704739B12E4A2C32126802432C4B2C333E
:1016A0001A6006E02A4A2C3212688243284B2C33F7
:1016B0001A60704739B1264A303212680243244B0F
:1016C00030331A6006E0224A303212688243204BDF
:1016D00030331A607047012808D11D493C31096830
:1016E00041F008011A4A3C32116007E018493C31C8
:1016F000096821F00801164A3C321160704739B17F
:10170000134A273A12780243114B273B1A7006E01E
:101710000F4A273A127882430D4B273B1A707047C5
:101720000B484030006840F0807009494031086043
:10173000704701460020064A283A12680A400AB15A
:10174000012000E0002070470149263908707047E9
:101750003438024010B50446FA48844208D10121C9
:101760001020FFF752FF00211020FFF74EFF57E037
:10177000F548844209D101214804FFF735FF0021D3
:101780004FF40030FFF730FF4AE0F048844209D1BF
:1017900001218804FFF728FF00214FF48020FFF784
:1017A00023FF3DE0EA48844209D10121C804FFF744
:1017B0001BFF00214FF40020FFF716FF30E0E54843
:1017C000844209D101210805FFF70EFF00214FF4E3
:1017D0008010FFF709FF23E0DF48844208D1012190
:1017E0002020FFF712FF00212020FFF70EFF17E057
:1017F000DA48844209D101218807FFF7F5FE00216C
:101800004FF08040FFF7F0FE0AE0D548844207D150
:1018100001214005FFF7E8FE00216005FFF7E4FE27
:1018200010BD2DE9FF4705460E460024A14600BF26
:10183000A046B08900B100BF2C8A24F44054F0883F
:1018400004432C82AC8941F20C608443B088318916
:101850000843718908430443AC81AC8A24F4407482
:10186000B0890443AC826846FFF74FFDB548854216
:1018700002D0B948854202D1DDF80C9001E0DDF8D4
:101880000890A88900F4004040B109EBC90000EBC2
:10189000091031684900B0FBF1F707E009EBC90016
:1018A00000EB091031688900B0FBF1F76420B7FB49
:1018B000F0F004012009642101FB1078A88900F4EC
:1018C000004040B1322000EBC800B0FBF1F000F066
:1018D0000700044308E0322000EB08106421B0FB4D
:1018E000F1F000F00F0004432C81BDE8FF874FF4B6
:1018F0001651016000218180C18001810C2141814C
:1019000000218181704710B502460020108A20F422
:1019100070600B884C8823438C882343CC882343F6
:101920001843108210BD0021018041808180C18058
:10193000704721B1828942F40052828104E0828999
:101940004DF6FF731A4082817047028B02F47F428A
:101950000283028B0A430283704721B1828942F4D9
:101960000042828103E08289C2F30E0282817047C5
:1019700021B1828A42F40062828204E0828A4FF2BC
:10198000FF731A4082827047C1F308028280704759
:1019900001468888C0F308007047028A4FF6F0734A
:1019A0001A400282028A0A430282704721B1828968
:1019B00042F00202828104E082894FF6FD731A40F0
:1019C0008281704782894FF2FF731A408281828937
:1019D0000A4382817047028A4FF6DF731A400282FF
:1019E000028A0A430282704721B1028A42F480428D
:1019F000028204E0028A4BF6FF731A4002827047AB
:101A0000818941F001018181704721B1828A42F0D0
:101A10000802828204E0828A4FF6F7731A408282BB
:101A20007047028BD2B20283028B42EA0122028308
:101A3000704721B1828A42F02002828204E0828AC9
:101A40004FF6DF731A408282704721B1828A42F0DA
:101A50001002828204E0828A4FF6EF731A4082827B
:101A60007047828A4FF6FB731A408282828A0A4349
:101A70008282704721B1828A42F00202828204E0AF
:101A8000828A4FF6FD731A40828270471AB1838AA8
:101A90000B43838202E0838A8B4383827047F0B5D5
:101AA0000346002400260025002040F66A17B942AC
:101AB00000D100BF1846C1F3421401F01F060127F0
:101AC00007FA06F5012C01D10C3004E0022C01D1FB
:101AD000103000E014301AB107682F43076002E0AD
:101AE0000768AF430760F0BD02460020B1F5007FF4
:101AF00000D100BF13880B400BB1012000E0002093
:101B0000704701F40072B2F5007F00D100BFCA43F4
:101B10000280704770B50246002400230025002093
:101B200040F66A16B14200D100BFC1F3421501F080
:101B30001F03012606FA03F3012D13D196893340C2
:101B400017E0000000100140004400400048004041
:101B5000004C00400050004000140140007800405C
:101B6000007C0040022D02D1168A334001E0968AA3
:101B700033400C12012606FA04F41688344013B1DF
:101B80000CB1012000E0002070BD10B50022002340
:101B900040F66A14A14200D100BF0A120124944009
:101BA000A3B2DC43048010BD704770477047704794
:101BB0007047754600F028F8AE4605006946534662
:101BC00020F00700854618B020B5FFF7C9F8BDE83A
:101BD00020404FF000064FF000074FF000084FF094
:101BE000000B21F00701AC46ACE8C009ACE8C00925
:101BF000ACE8C009ACE8C0098D4670470446AFF3B5
:101C000000802046FEF72DFB00487047B80A0020F0
:101C10004FF04070E1EE100A704700000000000035
:101C20000000002F000000000700070000147F14D0
:101C30007F1400242A7F2A120062640813230036CE
:101C40004955225000000503000000001C224100FD
:101C5000000041221C000014083E08140008083E41
:101C60000808000000A0600000080808080800003C
:101C700060600000002010080402003E5149453E0B
:101C80000000427F40000042615149460021414529
:101C90004B31001814127F10002745454539003C90
:101CA0004A4949300001710905030036494949365E
:101CB00000064949291E000036360000000056364D
:101CC0000000000814224100001414141414000031
:101CD0004122140800020151090600324959513EBF
:101CE000007C1211127C007F49494936003E414177
:101CF0004122007F4141221C007F49494941007F28
:101D000009090901003E4149497A007F0808087F16
:101D10000000417F4100002040413F01007F081446
:101D20002241007F40404040007F020C027F007F44
:101D30000408107F003E4141413E007F0909090629
:101D4000003E4151215E007F09192946004649495C
:101D500049310001017F0101003F4040403F001F29
:101D60002040201F003F4038403F006314081463A8
:101D700000070870080700615149454300007F4192
:101D8000410000552A552A55000041417F000004BA
:101D900002010204004040404040000001020400F3
:101DA000002054545478007F484444380038444458
:101DB000442000384444487F0038545454180008E4
:101DC0007E0901020018A4A4A47C007F0804047802
:101DD0000000447D4000004080847D00007F10288A
:101DE00044000000417F4000007C04180478007C1F
:101DF0000804047800384444443800FC242424189F
:101E00000018242418FC007C0804040800485454DA
:101E1000542000043F444020003C4040207C001CF3
:101E20002040201C003C4030403C00442810284406
:101E3000001CA0A0A07C004464544C44141414144E
:101E4000141400000000000000000000000000006A
:101E50000000000000F80000000000000033300027
:101E6000000000100C06100C06000000000000002E
:101E7000000040C07840C0784000043F04043F04A4
:101E80000400007088FC08300000001820FF211EAC
:101E90000000F008F000E018000000211C031E21E3
:101EA0001E0000F00888700000001E21232419275E
:101EB000211010160E0000000000000000000000BD
:101EC0000000000000E018040200000000071820D5
:101ED000400000020418E000000000402018070045
:101EE0000000404080F0804040000202010F0102EB
:101EF0000200000000F0000000000101011F0101CC
:101F00000100000000000000000080B07000000030
:101F100000000000000000000000000101010101BC
:101F2000010100000000000000000030300000004F
:101F30000000000000008060180400601806010026
:101F4000000000E010080810E000000F1020201032
:101F50000F00001010F8000000000020203F20209B
:101F60000000007008080888700000302824222132
:101F700030000030088888483000001820202011E8
:101F80000E000000C02010F8000000070424243FC9
:101F9000240000F808888808080000192120201172
:101FA0000E0000E0108888180000000F112020119A
:101FB0000E0000380808C83808000000003F000084
:101FC00000000070880808887000001C222121226F
:101FD0001C0000E010080810E0000000312222116F
:101FE0000F00000000C0C000000000000030300002
:101FF0000000000000800000000000008060000081
:1020000000000000804020100800000102040810B9
:1020100020004040404040404000040404040404C8
:102020000400000810204080000000201008040276
:102030000100007048080808F00000000030360178
:102040000000C030C828E810E00007182724231437
:102050000B000000C038E0000000203C23020227F3
:10206000382008F8888888700000203F2020201140
:102070000E00C0300808080838000718202020107B
:10208000080008F808080810E000203F2020201071
:102090000F0008F88888E8081000203F202023203F
:1020A000180008F88888E8081000203F2000030086
:1020B0000000C03008080838000007182020221E41
:1020C000020008F808000008F808203F210101215B
:1020D0003F20000808F8080800000020203F2020CA
:1020E000000000000808F8080800C08080807F0019
:1020F000000008F888C028180800203F2001263872
:10210000200008F8080000000000203F20202020C8
:10211000300008F8F800F8F80800203F003F003FC2
:10212000200008F830C00008F808203F20000718F9
:102130003F00E01008080810E0000F1020202010D9
:102140000F0008F808080808F000203F21010101ED
:102150000000E01008080810E0000F182424385090
:102160004F0008F8888888887000203F2000030C02
:10217000302000708808080838000038202121220B
:102180001C00180808F8080818000000203F20006C
:10219000000008F808000008F808001F2020202090
:1021A0001F000878880000C83808000007380E01B2
:1021B0000000F80800F80008F800033C0700073C9E
:1021C0000300081868808068180820302C03032C4E
:1021D00030200838C800C83808000000203F200020
:1021E000000010080808C8380800203826212020E0
:1021F0001800000000FE020202000000007F4040C4
:102200004000000C30C00000000000000001063853
:10221000C00000020202FE000000004040407F00BB
:1022200000000000040202020400000000000000A0
:10223000000000000000000000008080808080809E
:102240008080000202040000000000000000000086
:1022500000000000808080800000001924222222DB
:102260003F2008F8008080000000003F112020116E
:102270000E000000008080800000000E1120202051
:102280001100000000808088F800000E112020104E
:102290003F200000808080800000001F2222222238
:1022A0001300008080F0888888180020203F2020BC
:1022B00000000000808080808000006B94949493E4
:1022C000600008F8008080800000203F210000208E
:1022D0003F2000809898000000000020203F202030
:1022E0000000000000809898000000C08080807F7F
:1022F000000008F8000080808000203F24022D307C
:102300002000000808F8000000000020203F2020E6
:1023100000008080808080808000203F20003F205F
:10232000003F8080008080800000203F210000204E
:102330003F200000808080800000001F202020209F
:102340001F00808000808000000080FFA1202011FD
:102350000E000000008080808000000E112020A070
:10236000FF80808080008080800020203F2120002E
:102370000100000080808080800000332424242419
:102380001900008080E0808000000000001F2020F5
:1023900000008080000000808000001F20202010AE
:1023A0003F20808080000080808000010E30080681
:1023B000010080800080008080800F300C030C3092
:1023C0000F0000808000808080000020312E0E31C0
:1023D0002000808080000080808080818E701806C0
:1023E000010000808080808080000021302C22212C
:1023F000300000000000807C020200000000003F6E
:10240000404000000000FF00000000000000FF004E
:1024100000000002027C800000000040403F0000FD
:102420000000000601010202040400000000000098
:10243000000000005424000800000020F009000003
:10244000C401000810270008F00900202807000038
:102450002802000840120003050911FF118905C375
:1024600000E000F000F8000100083A4428FF11AA3B
:10247000440001500B83013844829292740183110D
:1024800020087C44FF017D7D7D04410540047D01E1
:10249000FF6E920102613F033B01017E8141914940
:1024A000F20101011BC230083F3F0303F313110186
:1024B000100601F1116181402005816111F147335E
:1024C000414107200401C12120A321C11431193148
:1024D00037040736D33303033F3F426006E0E00092
:1024E000007FA8127FBF40040618060A10080000EB
:1024F00040407F4040A410041F204001A3201F142F
:102500003300600E6004300C03460534C21004072B
:1025100007060170090404048444444484078005C8
:102520000484C4041501120A71112140073D0707F4
:10253000C9200F0000101814121100000F10101005
:102540000F0F131F1015600D081012120D00001848
:1025500000000D120A51295130015E015280010123
:102560003B4514047F030CA915DE1C053854545850
:102570002503080A2004047800003C40407C200029
:10258000092CFFAAAAAA280800FF681006264949B4
:102590004932101005020408100F0D6F00049D0150
:1025A000040D9D0004156343F80801240500F81884
:1025B00060E82404806018235720202923E010219C
:1025C000A310E01449B4313908043C886818630D3D
:1025D00015FF037DEA039DFF0371144DFF031D06E4
:1025E000043D2E040942E91C0640202020C04A0474
:1025F000110721EA3E40520452600E8118712951A0
:10260000070D4769031C060C0A0A090C0004156B28
:102610002D00042004080F081510050809090E07ED
:102620001D180430050909090F0A512951070DFF2A
:1026300000040D2200047C047A030A1F071C0B020D
:102640000304060708090000F06A052310FF050EC1
:1026500013F091052E0FED052EFF06060A120F2F1F
:10266000100840405F55555575045B5F4094D95044
:1026700024060F09498979B70211201F200800FE9E
:1026800002424ACA4A030C04124202FEF904000C38
:102690001340504C4340404F50505C40FE13F8886C
:1026A0000122FF050E13F8DA072E1F9D03227F205B
:1026B00003109F80E2338082010C0716E2A2928A07
:1026C0008682DF050C041640807F3808040B142432
:1026D00024A4FEA3220022CC009C1F0806F9083E79
:1026E0000131070C0510FF020202EF06257C539012
:1026F00008C3FE0898070C0F1E0444827F018080E7
:1027000040432C102846817F0625D685DA0000003C
:040000050800018965
:00000001FF
